S0130000446973706C6179546573742E737265639B
S113000045C1000068C1000066C1000064C1000071
S113001062C1000060C100005EC100005CC100005C
S11300205AC1000058C1000056C1000054C100006C
S113003052C1000050C100004EC100004CC100007C
S11300404AC1000048C1000046C1000044C100008C
S113005042C1000040C100003EC100003CC100009C
S11300603AC1000038C1000036C1000034C10000AC
S113007032C1000030C100002EC100002CC10000BC
S11300802AC1000028C1000026C1000024C10000CC
S113009022C1000020C100001EC100001CC10000DC
S11300A01AC1000018C1000016C1000014C10000EC
S11300B012C1000010C100000EC100000CC10000FC
S11300C00AC1000008C1000006C1000004C100000C
S11300D002C1000000C10000FEC00000FCC000001E
S11300E0FAC00000F8C00000F6C00000F4C0000030
S11300F0F2C00000F0C00000EEC00000ECC0000040
S1130100EAC00000E8C00000E6C00000E4C000004F
S1130110E2C00000E0C00000DEC00000DCC000005F
S1130120DAC00000D8C00000D6C00000D4C000006F
S1130130D2C00000D0C00000CEC00000CCC000007F
S1130140CAC00000C8C00000C6C00000C4C000008F
S1130150C2C00000C0C00000BEC00000BCC000009F
S1130160BAC00000B8C00000B6C00000B4C00000AF
S1130170B2C00000B0C00000AEC00000ACC00000BF
S1130180AAC00000A8C00000A6C00000A4C00000CF
S1130190A2C00000A0C000009EC000009CC00000DF
S11301A09AC0000098C0000096C0000094C00000EF
S11301B092C0000090C000008EC000008CC00000FF
S11301C08AC0000088C0000086C0000084C000000F
S11301D082C0000080C000007EC000007CC000001F
S11301E07AC0000078C0000076C0000074C000002F
S11301F072C0000070C000006EC0000004E0100275
S11302001C07123732292D29252B3900010310E14F
S113021010031D07062E2C292D2E2E373F00000219
S11302201013800A298064022A040000007F2B0432
S11302300000007F022A040000007F2B040000005D
S11302409F022A04000200812B04000100A00F0178
S113025080961180FFB103012C2DB203012C2DB324
S113026006012C2D012C2DB40107C003A20284C168
S113027001C5C2020A00C3028A2AC4028AEEC50169
S11302800E20003601C83A010500F10111241FBEF9
S1130290CFEFCDBFDFE3DEBF00E00CBF18BE19BE59
S11302A01ABE1BBE20E2A0E0B0E201C01D92A9313B
S11302B0B207E1F712E0CCE8D2E000E005C02297F3
S11302C00109FE010BBF48D4CA38D10780E00807F2
S11302D0B1F702D046C494CEE0E5F0E082E0828338
S11302E080818A608083818190E0809590958A7076
S11302F09927892BC1F7E0E5F0E082E0868391E05D
S11303009093600028ED24BFA0E4B0E09C9390811A
S11303109E7F908313968C9388E0809385068093C8
S11303208106E0EAFAE091E19683178293E09583EF
S113033098E194838093C10762E080E090E21FD249
S113034010E01CC06E2D6894EE24E3F8E60E0F2D29
S11303502E2D412F80E090E257D2C0E0D0E0BE01C4
S113036080E090E286D2C05CDF4FC11580E1D807FF
S1130370B1F7E0E8EE12E6CF07C01F2D6894FF2422
S1130380F3F8F10E60E0DFCFF0EAFF12F6CF0F2EA4
S1130390F7ECEF2EF7E0FF2EF02D6894AA24A3F8D3
S11303A00F2EF8E8BF2EF02D0F2EF3E1CF2EF02DF7
S11303B0C3E3D3E000EA1AE00F2EF1E4DF2EF02DC0
S11303C0F701A0828B2D9C2DFE013197F1F7019747
S11303D00097D1F7F801D08261E080E090E26CD21E
S11303E0EFCF8F929F92AF92CF92DF92EF920F93C3
S11303F01F9380EA8F9380E88F9380E18F9380EB43
S11304008F930F2EF0E48F2EF6E09F2EF02DAA246A
S1130410A3940F2EF0EECF2EF7E0DF2EF02D68948C
S1130420EE24E7F800E816E020E440E856E060EC4B
S113043078E080E090E20DD00F900F900F900F9035
S11304401F910F91EF90DF90CF90AF909F908F907E
S113045008958F929F92AF92CF92DF92EF920F9373
S11304601F93CF93DF93CDB7DEB7FC016083718315
S113047042835383248305831683E782C086D1860F
S1130480A286838694868E858587888990E087876F
S1130490908B898990E0818B928B8F858687DF9101
S11304A0CF911F910F91EF90DF90CF90AF909F90DD
S11304B08F900895FC01A085B185828516968C9352
S11304C0A281B381848116968C93A081B181129606
S11304D08C911297882314F413966C93A281B381A0
S11304E0848115968C930895FC01A085B18582853D
S11304F015968C93A281B381848116968C93A081E6
S1130500B18112968C911297882314F413966C93EC
S1130510A281B381848115968C9308953F924F9262
S11305205F926F927F928F929F92AF92BF92CF927F
S1130530DF92EF92FF920F931F93CF93DF93EC011F
S11305407B018FEFE81AF80AFB01949003E313E0B0
S11305500F2EF8E88F2EF02D0F2EF3E13F2EF02D05
S113056071C0F7016491CE01A5DFF7013196E491E2
S1130570F2E0EF0EF11C8E2F8078B82EEF777724FF
S11305807A947E0EEE2381F0AE2E6701F60164911B
S1130590CE01AADFFFEFCF1ADF0AAA94B9F7872D9D
S11305A090E00196E80EF91EBB2009F44AC05701F9
S11305B08FEFA81AB80AF70164916F3F49F170E010
S11305C080E090E0B0D12B013C0120E030E040E03D
S11305D056E437D26B017C0120E030E040E85FE371
S11305E072D1882324F120E03FEF4FE757E4C7019D
S11305F0B60123D21816BCF420E030E040E251E406
S1130600C301B2011ED263D16115710519F416C07C
S1130610682D732DC8010197F1F7615071096115B7
S11306207105C1F70DC0C701B60151D102C061E027
S113063070E0CB010197F1F7750103C0750101C0AA
S113064075019A9491108DCFDF91CF911F910F91E5
S1130650FF90EF90DF90CF90BF90AF909F908F90DE
S11306607F906F905F904F903F900895DC01559676
S11306701D921C92569753961D921C92549718964D
S1130680ED91FC9119971A968C911A978183129681
S1130690ED91FC91139714968C91149781831B967A
S11306A0ED91FC911C971D968C911D9781831B964F
S11306B0ED91FC911C971E968C911E978583ED916C
S11306C0FC91119784E18083ED91FC9111978081D5
S11306D0806480831296ED91FC91139714968C910B
S11306E0149786831596ED91FC911697309709F42B
S11306F040C017968C91179781831596ED91FC91C4
S1130700169717968C911797858328E833E183E32E
S113071093E0FC013197F1F721503109211531059E
S1130720C1F71596ED91FC91169717968C91179732
S1130730868328E833E143E353E0FA013197F1F784
S11307402150310921153105C1F71596ED91FC9120
S1130750169717968C911797858328E833E143E31E
S113076053E0FA013197F1F7215031092115310590
S1130770C1F76115710511F0CD01D0CE08951F9315
S1130780CF93DF93EC01162F6EE472E06FDF11114B
S11307900DC061E472E0CE01C1DE82E090E08B8B9B
S11307A09C8B81E090E08D8B9E8B25C0113089F469
S11307B080E890E0898B9A8B67E272E0CE01AEDE2E
S11307C082E090E08B8B9C8B83E090E08D8B9E8B02
S11307D012C064E372E0CE01A1DE6CEF71E0CE01E1
S11307E09DDE123031F466E3CE0164DE60ECCE01AE
S11307F07BDE1F8B05C06CEF71E0CE018FDEF9CF7D
S1130800DF91CF911F910895EF92FF920F931F9361
S1130810CF93DF93EC01E62E142FF22E6AE24ADE28
S113082060E0CE0161DE6B896E0DCE015DDE60E0BD
S1130830CE015ADE6B896F0DCE0156DE6BE2CE011E
S113084039DE60E0CE0150DE6D89610FCE014CDEF1
S113085060E0CE0149DE6D89600FCE0145DE6CE2B9
S1130860CE0128DEDF91CF911F910F91FF90EF9081
S11308700895FC01A085B185828515968C93A2818B
S1130880B381848116968C93A081B18112968C9148
S11308901297882314F413967C93A081B181129645
S11308A08C911297882314F413966C93A281B381CC
S11308B0848115968C930895662311F061E201C03A
S11308C060E2F8CD08956CD008F481E0089594D0E6
S11308D088F09F5790F0B92F9927B751A0F0D1F025
S11308E0660F771F881F991F1AF0BA95C9F712C0AF
S11308F0B13081F09BD0B1E0089598C0672F782F74
S11309008827B85F39F0B93FCCF38695779567951A
S1130910B395D9F73EF490958095709561957F4F86
S11309208F4F9F4F0895E89409C097FB3EF490952C
S11309308095709561957F4F8F4F9F4F9923A9F0B4
S1130940F92F96E9BB279395F69587957795679543
S1130950B795F111F8CFFAF4BB0F11F460FF1BC087
S11309606F5F7F4F8F4F9F4F16C0882311F096E91A
S113097011C0772321F09EE8872F762F05C06623C8
S113098071F096E8862F70E060E02AF09A95660F81
S1130990771F881FDAF7880F9695879597F908953A
S11309A0990F0008550FAA0BE0E8FEEF161617067C
S11309B0E807F907C0F012161306E407F50798F0E4
S11309C0621B730B840B950B39F40A2661F0232BFD
S11309D0242B252B21F408950A2609F4A140A69579
S11309E08FEF811D811D089557FD9058440F551FA9
S11309F059F05F3F71F04795880F97FB991F61F09D
S1130A009F3F79F087950895121613061406551F13
S1130A10F2CF4695F1DF08C0161617061806991F7F
S1130A20F1CF86957105610508940895E894BB2774
S1130A3066277727CB0197F90895B2DF08F48FEF83
S1130A4008950BD078C069D028F06ED018F09523A3
S1130A5009F05AC05FC01124EACFC6DFA0F3959F06
S1130A60D1F3950F50E0551F629FF001729FBB2791
S1130A70F00DB11D639FAA27F00DB11DAA1F649F3D
S1130A806627B00DA11D661F829F2227B00DA11DF0
S1130A90621F739FB00DA11D621F839FA00D611D76
S1130AA0221F749F3327A00D611D231F849F600D97
S1130AB0211D822F762F6A2F11249F5750408AF0D0
S1130AC0E1F088234AF0EE0FFF1FBB1F661F771F5C
S1130AD0881F91505040A9F79E3F510570F014C0F3
S1130AE0A6CF5F3FECF3983EDCF386957795679548
S1130AF0B795F795E7959F5FC1F7FE2B880F911D7A
S1130B009695879597F9089597F99F6780E870E01F
S1130B1060E008959FEF80EC089500240A9416166F
S1130B20170618060906089500240A9412161306D7
S1130B30140605060895092E0394000C11F4882365
S1130B4052F0BB0F40F4BF2B11F460FF04C06F5F81
S1130B507F4F8F4F9F4F08950790F691E02D1BBE56
S1090B601994F894FFCF84
S9030000FC
